:1000000000000320D1010000D50F00008D0F00007B
:100010008D0F00008D0F00008D0F00008D0F000070
:100020008D0F00008D0F00008D0F0000D50F000018
:10003000D50F00008D0F00009525000099260000C7
:10004000D50F0000D50F0000D50F0000D50F000020
:10005000D50F0000D50F0000D50F0000D50F000010
:10006000D50F0000D50F0000D50F0000D50F000000
:10007000D50F0000D50F0000D50F0000D50F0000F0
:10008000D50F0000D50F0000D50F0000D50F0000E0
:10009000D50F0000D50F0000D50F0000D50F0000D0
:1000A000D50F0000D50F0000D50F0000D50F0000C0
:1000B000D50F0000D50F0000D50F0000C1270000AC
:1000C000D50F0000ED280000D50F0000192A000010
:1000D000D50F0000112B0000D50F0000D50F000038
:1000E000D50F0000D50F0000D50F0000D50F000080
:1000F000D50F0000D50F0000D50F0000D50F000070
:10010000D50F0000D50F0000D50F0000D50F00005F
:10011000D50F000085140000D50F0000D50F00009A
:10012000D50F0000D50F0000D50F0000D50F00003F
:10013000D50F0000D50F0000D50F0000D50F00002F
:10014000DD320000D50F0000092C0000D50F0000A3
:10015000D50F0000D50F0000D50F0000D50F00000F
:10016000D50F0000D50F0000D50F0000D50F0000FF
:10017000D50F0000D50F0000D50F0000D50F0000EF
:10018000D50F0000D50F0000D50F0000D50F0000DF
:10019000D50F0000D50F0000012D0000D50F000085
:1001A000D50F0000D50F0000D50F0000D50F0000BF
:1001B000D50F0000D50F0000D50F0000D50F0000AF
:1001C000D50F0000D50F0000D50F0000D50F00009F
:1001D0005C4B4CF2205210B51A804DF628121A8052
:1001E00000BF00BF00F0FAFE574B4FF030621A60BC
:1001F000564A9A60564ADA60564B4FF470021A60BB
:10020000554B564A1A60564B1A78110703D51A787F
:1002100042F008021A70534B5349AA221A70534AEB
:10022000534B8B4204D252F8040F43F8040BF8E707
:10023000504B514900228B4202D243F8042BFAE77B
:100240004E494F4A002352F8230041F8230001335E
:10025000742BF8D14B4B4C4A802103F8011B93427D
:10026000FBD14A4B454A1A60494B8A221A70A3F5C2
:10027000805324225A70A0221A709A799207FCD5D2
:100280009A79D406FCD4434A937903F00C03082BE3
:10029000FAD1414B60221A7002331A78802AFCD1BD
:1002A0003C4B01221A715D225A719A799006FCD555
:1002B0009979384A4906FBD5384B394919600021EC
:1002C000596020231370937903F00C030C2BFAD19F
:1002D000344B354A1A60354A354C136813F4807331
:1002E00003D123604FF4A8531360324B324A1A6093
:1002F00000225A60072243F8042C304AC3F80C2D20
:1003000062B600F04BFF2368DA0705D52C4800F0F1
:10031000E1FE2C4B2C4A1A602C4B1B785B0609D54E
:10032000284C294B22689A4204D1254800F0D2FE7D
:100330000023236003F030F800F056FE00F01EFEAC
:10034000FEE700BF0E20054030800440823F0400DD
:100350000100002B88ED00E0002008E0030000858C
:1003600002D0074000E00740E417FF1F48450000A7
:10037000B00DFF1FE417FF1F901DFF1F0002FF1F9E
:100380000000000000E400E064E400E008ED00E0AC
:10039000005006400040064001E007404480044011
:1003A0000000060204800440C010070010D0034083
:1003B00014D0034014E000E01FBF02000000202022
:1003C0007086F35D1CE00340A5C3945A00F007401B
:1003D000FFFFFFFFFFFFFFFFFFFFFFFFFFFFFFFF2D
:1003E000FFFFFFFFFFFFFFFFFFFFFFFFFFFFFFFF1D
:1003F000FFFFFFFFFFFFFFFFFFFFFFFFFFFFFFFF0D
:10040000FFFFFFFFFFFFFFFFFFFFFFFFDEF9FFFF23
:1004100010B5054C237833B9044B13B10448AFF33E
:1004200000800123237010BDE417FF1F00000000AF
:1004300044450000084B10B51BB108490848AFF30C
:1004400000800848036803B910BD074B002BFBD0A0
:10045000BDE81040184700BF00000000E817FF1F6C
:1004600044450000E417FF1F00000000406870478B
:10047000037E826823B143699942ACBF02690023BD
:1004800099420BDD5AB1013399425268FAD10123E6
:1004900041610261037612B110687047F7D0002005
:1004A000704700BF10B504468068064B236038B122
:1004B0004368A360082100F0E5FDA0680028F7D19B
:1004C000204610BDFC43000038B5044608200D4608
:1004D00000F0D6FDA3680560002242604BB1E368DE
:1004E0005860E06063680022013363602276012077
:1004F00038BDA060E060F5E743688B422DE9F0412C
:10050000064635DD51B3082017460D4600F0B8FD0C
:10051000337EB4680022013D0260426023B17369FA
:100520009D42ACBF346913469D4227DDE4B12A46A3
:1005300000E0CCB10133AB426468FAD1954213D1EB
:10054000736862684260013300210760756134613D
:100550006060736031760120BDE8F0810368114668
:10056000DB68BDE8F0411847002307605B68FFDEE9
:10057000036811469B68BDE8F04118471A46DDE75D
:1005800000293FDB4368994270B5044633DA69B30A
:10059000013B994231D0037E8268013903BB994205
:1005A00032DDD2B1084600E0BAB101338B42526865
:1005B000FAD1814211D150686161436805682261B6
:1005C000012121765360082100F05CFD6368002260
:1005D000013B28466360227670BD00235B68FFDE26
:1005E00043699942ACBF02690023D8E70368BDE8BC
:1005F0007040DB691847002070BD0368BDE870409B
:100600009B691847002070471846D2E74268002AC5
:1006100037DD70B5012A4FF000050646057626D075
:10062000023A84680DD04CB12B46114600E0D4B19B
:10063000013393426468FAD18A4202D000235B6896
:10064000FFDE636872610122184632763461082148
:100650001D6800F017FD73680022013B62602846A8
:100660007360F46070BD19468A42E7D1E9E780689B
:100670000468082100F006FD2046B560F56075604D
:1006800070BD0020704700BF00291BDB4368994202
:1006900018DA037E10B4846823B143699942ACBF71
:1006A0000469002399420FDD7CB1013399426468EB
:1006B000FAD10123046141610376184622605DF896
:1006C000044B704700207047F3D000231A60FFDE10
:1006D000426870B5044672B108200D4600F0D0FCA7
:1006E0006368A1680560013300224160A060636017
:1006F0002276012070BD0368BDE870409B681847F2
:100700004368002B17DD012B70B504460ED08368BB
:100710000821184693E8600000F0B4FC6368A66006
:10072000013B002228466360227670BD0368BDE865
:1007300070409B6918470020704700BF38B50A4DCC
:10074000044606E06068002820460BDD2368DB696C
:10075000984723681B68AB42F4D02046984700288E
:100760002046F3DC38BD00BF6D04000008B506214B
:10077000034801F039FD0348BDE8084000F092BB92
:1007800024440000B80DFF1FFEE700BF10B5064C63
:100790000121204600F00EF82046044A0449BDE835
:1007A000104002F0DDBD00BF0018FF1FB00DFF1F9D
:1007B000A504000070B50024134BC161A14284B0B0
:1007C000054603608460C46044600461446104764B
:1007D00016DD0E49684600F0B5FB302000F050FCF5
:1007E00010226946064600F081F9684600F06AFB6F
:1007F00031462846FFF768FEEB690134A342E8DC86
:10080000284604B070BD00BFFC4300002C4400002B
:1008100040687047037E826823B143699942ACBF48
:100820000269002399420BDD5AB1013399425268A3
:10083000FAD1012341610261037612B11068704759
:10084000F7D00020704700BF38B5044608200D4699
:1008500000F016FCA3680560002242604BB1E3681B
:100860005860E060636800220133636022760120F3
:1008700038BDA060E060F5E743688B422DE9F041A8
:10088000064635DD51B3082017460D4600F0F8FB4B
:10089000337EB4680022013D0260426023B1736977
:1008A0009D42ACBF346913469D4227DDE4B12A4620
:1008B00000E0CCB10133AB426468FAD1954213D168
:1008C00073686268426001330021076075613461BA
:1008D0006060736031760120BDE8F08103681146E5
:1008E000DB68BDE8F0411847002307605B68FFDE66
:1008F000036811469B68BDE8F04118471A46DDE7DA
:1009000000293FDB4368994270B5044633DA69B386
:10091000013B994231D0037E8268013903BB994281
:1009200032DDD2B1084600E0BAB101338B425268E1
:10093000FAD1814211D15068616143680568226132
:10094000012121765360082100F09CFB636800229E
:10095000013B28466360227670BD00235B68FFDEA2
:1009600043699942ACBF02690023D8E70368BDE838
:100970007040DB691847002070BD0368BDE8704017
:100980009B691847002070471846D2E74268002A42
:1009900037DD70B5012A4FF000050646057626D0F2
:1009A000023A84680DD04CB12B46114600E0D4B118
:1009B000013393426468FAD18A4202D000235B6813
:1009C000FFDE6368726101221846327634610821C5
:1009D0001D6800F057FB73680022013B62602846E7
:1009E0007360F46070BD19468A42E7D1E9E7806818
:1009F0000468082100F046FB2046B560F56075608C
:100A000070BD0020704700BF00291BDB436899427E
:100A100018DA037E10B4846823B143699942ACBFED
:100A20000469002399420FDD7CB101339942646867
:100A3000FAD10123046141610376184622605DF812
:100A4000044B704700207047F3D000231A60FFDE8C
:100A50004368002B17DD012B70B504460ED0836868
:100A60000821184693E8600000F00CFB6368A6605C
:100A7000013B002228466360227670BD0368BDE812
:100A800070409B6918470020704700BF426870B5EE
:100A9000044672B108200D4600F0F2FA6368A168BE
:100AA0000560013300224160A0606360227601206E
:100AB00070BD0368BDE870409B68184738B50A4DA3
:100AC000044606E06068002820460BDD2368DB69E9
:100AD000984723681B68AB42F4D02046984700280B
:100AE0002046F3DC38BD00BF110800002DE9F041BD
:100AF00005460024194B036000F11C0784B08846AA
:100B000038462146AC60EC606C602C616C612C76E0
:100B1000164600F017FA4146384600F027FAA6427A
:100B2000EE6217DD0E49684600F00CFA302000F046
:100B3000A7FA6B4621461022064600F081F9684666
:100B400000F0C0F931462846FFF77EFEEB6A01341B
:100B5000A342E7DC284604B0BDE8F0813C44000035
:100B60006444000040687047037E826823B1436993
:100B70009942ACBF0269002399420BDD5AB101339F
:100B800099425268FAD1012341610261037612B1A0
:100B900010687047F7D00020704700BF38B5044692
:100BA00008200D4600F06CFAA36805600022426040
:100BB0004BB1E3685860E060636800220133636012
:100BC0002276012038BDA060E060F5E743688B42E3
:100BD0002DE9F041064635DD51B3082017460D4694
:100BE00000F04EFA337EB4680022013D026042609C
:100BF00023B173699D42ACBF346913469D4227DD22
:100C0000E4B12A4600E0CCB10133AB426468FAD1CA
:100C1000954213D173686268426001330021076016
:100C2000756134616060736031760120BDE8F081E8
:100C300003681146DB68BDE8F041184700230760F0
:100C40005B68FFDE036811469B68BDE8F04118470A
:100C50001A46DDE700293FDB4368994270B5044638
:100C600033DA69B3013B994231D0037E826801399E
:100C700003BB994232DDD2B1084600E0BAB101337C
:100C80008B425268FAD1814211D150686161436848
:100C900005682261012121765360082100F0F2F9F4
:100CA00063680022013B28466360227670BD002302
:100CB0005B68FFDE43699942ACBF02690023D8E755
:100CC0000368BDE87040DB691847002070BD036809
:100CD000BDE870409B691847002070471846D2E76E
:100CE0004268002A37DD70B5012A4FF0000506463C
:100CF000057626D0023A84680DD04CB12B461146B9
:100D000000E0D4B1013393426468FAD18A4202D040
:100D100000235B68FFDE6368726101221846327649
:100D2000346108211D6800F0ADF973680022013BB1
:100D3000626028467360F46070BD19468A42E7D14C
:100D4000E9E780680468082100F09CF92046B56056
:100D5000F560756070BD0020704700BF00291BDB87
:100D60004368994218DA037E10B4846823B143695A
:100D70009942ACBF0469002399420FDD7CB1013375
:100D800099426468FAD101230461416103761846EF
:100D900022605DF8044B704700207047F3D00023B9
:100DA0001A60FFDE4368002B17DD012B70B5044687
:100DB0000ED083680821184693E8600000F062F9BD
:100DC0006368A660013B002228466360227670BDFE
:100DD0000368BDE870409B6918470020704700BF5A
:100DE000426870B5044672B108200D4600F048F91B
:100DF0006368A1680560013300224160A060636000
:100E00002276012070BD0368BDE870409B681847DA
:100E100038B50A4D044606E06068002820460BDD20
:100E20002368DB69984723681B68AB42F4D02046EF
:100E3000984700282046F3DC38BD00BF650B000052
:100E40002DE9F843054600241548286005F12006E1
:100E50009846894630462146AC60EC606C602C6157
:100E60006C612C76174600F06DF83046C5F81C9082
:100E7000414600F07BF8A7420EDD0C2000F000F99F
:100E8000002211460646013402F070FA3146284627
:100E9000FFF784FEA742F0D12846BDE8F88300BFE3
:100EA0007444000000B5064A036812885B6883B08A
:100EB00001A9ADF804200222984703B05DF804FBB5
:100EC0009C44000010B50446006802F095FA2046E4
:100ED00010BD00BF38B543688B4201D3012038BD37
:100EE0000D4604460131006802F0FCFD0028F6D0F2
:100EF000A36884E82100002BF0D10370EEE700BF67
:100F0000F8B50446154632B9036803B11A700023D8
:100F1000A3602046F8BD0E461146FFF7DBFF0746EB
:100F200048B9206810B102F067FA276000236360B7
:100F3000A3602046F8BDA5603146206802F0DCFFC2
:100F4000E7E700BF38B500230446036043608360D1
:100F5000037341B108460D4603F032F829460246B4
:100F60002046FFF7CDFF204638BD00BF814203D0A9
:100F70008A680968FFF7C4BF704700BF08B5FFF76C
:100F8000F5FBFFF701FC01F033FAFAE708B5104C66
:100F900008E0236859050DD423681A050FD4236887
:100FA000DB0411D423685803F3D500F06BFA2368EF
:100FB0005905F1D501F004FC23681A05EFD501F0BD
:100FC00095FC2368DB04EDD501F026FDEAE700BFC0
:100FD0003480044008B5FFF7D9FF00BF014B102251
:100FE0001A80704700200540704700BF094908B5C6
:100FF0000B6830B16A461844A2F50052904202D202
:101000000860184608BD02F0C1F90C2303604FF0D8
:10101000FF3008BDB40DFF1F084A1378802B01D0A4
:10102000002070470649074B0748086000211970E7
:101030001378802BFCD00120704700BF03E00740ED
:101040004480044001E0074000002822094A137848
:10105000012B01D00020704703F1804303F5FC23EE
:10106000602119701378802BFCD1034B034A1A605E
:101070000120704703E0074044800440000006025E
:1010800002F0B2B902F0B8B9F0B44D1E2E460024F9
:1010900000E00134B0FBF2F302FB1300092800F179
:1010A00030078ABF3730F8B2C0B206F8010F1846D1
:1010B000002BEED10A1953704CB1107815F8016F5E
:1010C00028700133E01A834202F80169F5DB084613
:1010D000F0BC704730B4054B054D064C0022102182
:1010E0001A602A602060196030BC704714D0034039
:1010F00004D0034000D003402DE9F843054672B602
:10110000224F234B234A1B683C68126862B6520187
:1011100002D5322B88BF0134B5B3C3F52F3303F2A8
:101120001F331D4EDFF86890DFF868809B084FF48E
:101130007A72A6FB031302FB04F404EB930472B669
:10114000D9F800103A68D8F800E062B6C1F52F333C
:1011500003F21F339B08A6FB03031EF0806FC4EB52
:1011600093034FF47A7002D0322988BF013200FB1A
:101170000233B3F57A7F04D3013D05D004F57A74C8
:10118000DDE701F035F9DAE7BDE8F8832018FF1F45
:1011900018E000E004ED00E0176CC116F8B54E4B06
:1011A0004E48DFF85CC14E4C4E49DFF858E14E4ED8
:1011B0004E4D4F4F4FF000621A604FF080521A6050
:1011C0004FF000521A604FF080421A604FF0004218
:1011D0001A600022026028234EF6FF70CCF800004F
:1011E000CEF8003023600EF5012E0B6033602B60CB
:1011F00006F500263B6005F50025A36207F50027EC
:101200008B6204F5012401F5012106F6E87605F666
:10121000E87507F57F6710310EF1100E203433604A
:101220002B60CEF800303B600B602360314CBB611B
:101230008B6109212160A7F5002704F58054203F28
:1012400008343A602060BB60E36047F8041C04F592
:10125000FD2407F5FE27043704F2FC742260386091
:10126000A360FB6044F8041C083404F6FC74C7F85F
:10127000FC2F2060A4F5E124A4F2DC7433602B6021
:10128000C7F8F81F21681C4841F40071216001680B
:101290001A4C0EF57F4E0EF1E80E07F5883706F56D
:1012A000803605F5803541F000710160CEF80020F0
:1012B00047F6FF710822396033602B60226001F02D
:1012C000FFF91920FFF718FF00F04EFE40F213104F
:1012D000BDE8F840FFF710BF04E100E004800340E0
:1012E000148003401C800340248003402C80034072
:1012F00034800340008003400480044000900C4090
:10130000088003400C800340431E072B14D872B69C
:101310000A4951F8230068B170B4094C058834F8C3
:101320001320466841F82360521B24F8132062B64C
:1013300070BC704762B67047002070478C18FF1F62
:10134000701DFF1F013807280BD872B6074B53F8E2
:10135000203043B100205B680130002BFBD162B626
:101360007047002070471846F9E700BFF018FF1FCC
:10137000F0B5864672B6022201231C491C4F02E0DA
:10138000294601330132072B01F10105F9D0097813
:1013900017489C00090744F0010605D557F834109A
:1013A00069B157F83610C1B1092AE9D162B6114BBB
:1013B00000221A707046BDE8F04000F073BE0D497F
:1013C0000D4D0A7840F8345000EB43130EF108003D
:1013D000013A58600A7062B6F0BD0649074B40F802
:1013E00036300A7800EBC603F0E700BFC8440000BF
:1013F0000000FF1F3919FF1F88004000C80040008F
:10140000431E072B1DD81B4A400140F0100030B48A
:10141000104472B6184CE25C032A1BD8DFE802F0D5
:101420000212151703220D88E25410F0080F14BFA2
:10143000C823882343EA054308310360416062B64C
:1014400030BC704708300222EDE70522EBE7083098
:101450000422E8E7094A52F8230038B1084A52F852
:101460002300416042F8231062B6E9E742F82310F6
:10147000034AF7E70000FF1F4819FF1FF018FF1F7E
:101480001019FF1F2DE9F04FDFF844A3DFF844B334
:1014900089B049E0DFF840834FEA930908EBC907B8
:1014A000013C7A68E4B2052CA2F1080000F020812A
:1014B000062C00F03C81072C00F051811E0700F142
:1014C000388158F839301B0C99B222F8081C002BCF
:1014D00000F02481A94D55F82460002322F8063C31
:1014E00042F8043C002E00F01B82A54E56F8243032
:1014F0005860A44D46F8240035F81430194425F8F6
:10150000141000F0AFFD002800F003829E4A9F4BAC
:1015100017F0080F00F1080018BF1346786048F86C
:10152000393008238AF800309AF80040E4B26307A3
:101530001CD5974B1B78B3B196490A7802F0FF038C
:1015400022B1013BDBB20B7003B900BE92490A78AD
:1015500002F0FF032AB1013BDBB20B70002B00F05D
:10156000AE8100F0C5FD04238AF8003004F00803C2
:1015700003F0FF02002B00F03E819BF80030DBB24D
:101580001C0987D19D08DFF8509259F8352009EBE6
:10159000C501C2F38302013A49680C2A7CD8DFE80E
:1015A00002F07F7F7B7B7B7B7B7B4A7B7B7B0700A7
:1015B0000A687A4E49687A4B73487A4C716091B2E6
:1015C00049F83500326001200022B1F5086F01931F
:1015D0001A60C9F81020C9F818200792207000F08E
:1015E0004E8340F2298142F22135A94200F0FA826D
:1015F00000F2488240F60132914200F0CA8200F2C5
:101600009F82B1F5106F00F05D8340F68122914218
:1016100040F00482614B07909A88042A00F03984D4
:10162000052A40F0FB81604A60495C4B1278DF88F4
:101630000A70012042E25A4B0193196831B35C4BA6
:10164000584C5C4A1888257816784028074646F09A
:10165000020C28BF4027002D85F001052570A0EB66
:1016600007000CBF8824C82409EBCC0580B286F0A3
:10167000010644EA07446960188049F83C4039444F
:101680001670002800F00E81019B1960434B1A88E8
:10169000B2F5A06F00F00A81474A0123137040E7BA
:1016A0003E4A108842F22102904200F04D813B48B0
:1016B00001F032FDA8B13F4A3A4C1178207881F010
:1016C0000106002841F0020116700CBF8822C822D2
:1016D00049F8312009EBC10180F00100002220709F
:1016E0004A60294A49F83520334A0123137018E724
:1016F00019077FF5E6AE01F061FC00283FF411AF59
:1017000087F0080700042D4B2D4A7B6040F08000D5
:101710003860537983F00103537102E71A4A1B4B77
:1017200017F0080F18BF134648F83930F9E61B07C1
:1017300077D500F0B7FC234A214D52F82430002B16
:1017400000F0F2805968285D42F8241003F1080285
:101750007A60032844D8DFE800F0A2419F9C1D076F
:101760007FF5AFAE87F00807174A7A60174B144A27
:101770003B60D37983F00103D371D2E68C18FF1F4D
:101780002818FF1F701DFF1FC80040008800400080
:101790004419FF1FAD18FF1F5819FF1F3019FF1FF5
:1017A0002418FF1FAC18FF1F931CFF1F3C19FF1FBD
:1017B0004818FF1F3819FF1F942007408804FF1F97
:1017C0004819FF1FF018FF1FD003FF1F8000030000
:1017D00080200740902007400000FF1F02222A556A
:1017E0001A8817F0080F0CBF8823C82343EA024366
:1017F00048F8393095E6E00764D4210600F1CF803F
:10180000A20706D58A4A8B4913780220DBB21370EF
:101810000870E30602D5874B10221A7009B0BDE8A4
:10182000F08F58F83900000C01F016FB824A834B08
:101830007A6048F8393074E640F20230814200F0B4
:10184000268200F2B680B1F5817F00F0058200F2B9
:10185000DD80802900F02E82822940F0DF80784BE5
:10186000998801F07F01082900F2D8807548764DEB
:10187000734B2A70890008446A700278DF887249C5
:10188000900748BF01224FF0020048BF2A7007901E
:1018900014E104222A55A3E705222A55A0E70322D2
:1018A0002A559DE7402F18BF0021EDE600219A78C8
:1018B0005970664B1A70664A0123137031E600F0C6
:1018C00073FD4EE6634B624863491A614FF0020EA6
:1018D00080F800E05B4F0A70604919609960544ECF
:1018E000544D5A4C9A610D213970FF213170DFF847
:1018F00090E1297022705A4D5A4A8EF800109F27A5
:10190000012406F8047C5D600470DA6009B0BDE86B
:10191000F08F554A48F8390013780133137000E608
:1019200045F82400514EE4E52B5D032B00F22A819B
:1019300001A252F823F000BF231500002315000078
:10194000FF190000F9190000494A0C784878147012
:1019500050708C78C8789470D0700C7910681471BD
:101960004C79547186288C79947101F1070149D022
:10197000394A404C1078267880F00107002E40F05C
:10198000020017700CBF8822C82249F8302009EBEA
:10199000C00086F0010600222670426087E62949D1
:1019A000244B80220D2008701A70A2077FF531AFFA
:1019B00028E7B1F5A06F00F0158140F24E82A1F545
:1019C000D06101292AD82C4A516839B31C4B5D8853
:1019D0009E8802E00C32516801B31388AB42F9D102
:1019E0005388B342F6D12D0A032D00F07982144BAF
:1019F00010890790DF8861E001232B5591E50023D2
:101A00002B558EE51D4A0F201070B1E740F22113CF
:101A1000994206D040F22123994202D0094A0F236D
:101A200013700B4A01231370094A0123137078E5E0
:101A30008820074080200740D403FF1F8000B400A7
:101A40003019FF1FC02007403C19FF1F9820074096
:101A5000942007400000FF1F3819FF1F8800400036
:101A60004C18FF1FB018FF1F3919FF1F2818FF1F40
:101A7000801DFF1FAC18FF1FD0440000AD18FF1FD2
:101A80008C20074048F2A120814200F0D88000F26B
:101A9000CD8048F2A110814200F0D18048F2A2101E
:101AA0008142BBD1AE4BDF88022FB7D9AD4944206C
:101AB0008A700870AC2203204A700790874280F039
:101AC0009380402F3E4694F800E0079728BF4026B9
:101AD0008A198EF00108B81B33040292A24A84F8D6
:101AE00000801578BEF1000F45F0020C0CBF88276E
:101AF000C8271F4309EBCC0349F83C7085F0010768
:101B0000596017709949002850D0402851D9984BF6
:101B1000029C47F0020703EBC7035C60B8F1000FBB
:101B20006FD081F800E09249924B157041F8373040
:101B3000224640384032904B019918800A6070E785
:101B400042F2210291423FF46CAF42F221229142D3
:101B50007FF464AF894D824B89488A4A2D68997811
:101B600005601170804A157845F0020185F0010783
:101B700009EBC1001770C825002249F831504260B6
:101B800022704EE717F0080F0CBF022303232B55DA
:101B9000C7E4734B9A88042A00F08181052A7FF4F8
:101BA0003DAF6F4B784A59881170DBE7402E7FF4C8
:101BB00038AF47F0020709EBC703029E5E606C492D
:101BC0000304B8F1000F27D143F08803064441F81D
:101BD0003730157084F800E0324640287FF421AF9A
:101BE0000020A8E7002001464028064694F800E0BF
:101BF00028BF40268A198EF00108801B3304029208
:101C00006CE781F800E015705949029A5F4B41F882
:101C10003730403840328EE71570029A84F800E081
:101C200043F0C803024441F83730D6E748F2A13206
:101C3000914204D048F2A14291427FF4EFAE484D68
:101C40004849284607AA01F033FA00283FF4E6AED7
:101C5000EF880798434931E7414B9A8802F07F02A9
:101C6000082A3FF6DBAE598800297FF4D7AE4849F1
:101C7000920011440A7822F002020A7072E7454B82
:101C800038491A78364B0790DF880A7016E7344BCC
:101C90009A8802F07F02082A3FF6C0AE59880029D0
:101CA0007FF4BCAE3A49920011440A7842F0020235
:101CB0000A7057E72B492A4B0A700220DF884A70C6
:101CC0000790FBE6264B2A4D9A78324B05F5807635
:101CD0001A7002E00835AE4207D02B6A1F06F9D50C
:101CE000686A083800F0DEF9F4E72B492B4B2C4AE0
:101CF00002912C492C4E2D4D0594039604954FF0DE
:101D0000000814460E461D46286828B1476800F0B2
:101D1000C9F93846002FF9D100232B60039B2068B6
:101D20001A46002342F8283028B1476800F0BAF973
:101D30003846002FF9D100222260029A33781146EA
:101D4000002241F8042F049A0291023B4FF0000157
:101D500022F81810032B2ED8DFE803F0762A762A13
:101D60003019FF1F3C19FF1F3819FF1FAC18FF1F48
:101D70000000FF1FC80040004818FF1F2018FF1F69
:101D8000881DFF1F6819FF1F931CFF1F880040005C
:101D9000C02007404419FF1F0C19FF1F8C18FF1F9C
:101DA000F018FF1F4819FF1F2818FF1F701DFF1F85
:101DB0004FF00103337008F10108B8F1080F05F185
:101DC000040504F1040406F101069DD1554B564962
:101DD000059C02940022DFF888810A700227012600
:101DE0001C4611E0B50045F0020245F00305002154
:101DF000082E49F8321049F835104C4D00F0858016
:101E0000092F25D00136013718F8012B04F8042BCF
:101E1000072E6AD01507E5D500F024F988B3B50080
:101E200009EB4612424B49F835300830506000F05B
:101E300019F9E8B145F0010209EBC20108303D4B48
:101E400049F832304860CEE74FF000033370B2E714
:101E5000394B029CDF88079830E640F221339942E3
:101E60003FF4DFAD40F2214399423FF4DAADD5E5CE
:101E70002D4B1A7845F00101013249F831001A70F2
:101E8000B1E7294B1A78B500013249F835001A70CC
:101E9000CDE72A4A2A491278DF880A700EE69A7836
:101EA00026490A70002A3FF45DAE264D264A6F7916
:101EB000A2F10806002F18BF1646326812F0800102
:101EC0007FF450AEDFF89C80B022404601F0B8FDB0
:101ED00087F001071D4AC6F804806F71326041E641
:101EE000154B0878DF880790E8E5194A1949C9F8C1
:101EF000E420C9F8EC200022C9F8E010C9F8E81085
:101F0000C9F8F020C9F8F8207CE705EBC2060A4FB3
:101F10001148124B45F83200029CFF887360079805
:101F2000CCE500BFC42007403919FF1F0000FF1F88
:101F300088004000C80040003019FF1F921CFF1F9E
:101F40003C19FF1F4819FF1FD800FF1F8000B00079
:101F5000D403FF1F8000B40080000300D003FF1FE4
:101F6000C84400008804FF1F2DE9F041274C01F010
:101F7000F5F8002204F5847023461A605A6008338D
:101F800083424FF00001F8D12148224A0368DFF86C
:101F90009CE0214E214D224FDFF894C0DFF8948061
:101FA00043F480230360136843F0407313600323FA
:101FB0008EF80030A023337002F5C922C4F3072342
:101FC00000F528302B708030C4F3074310323B708B
:101FD000240EFF230470134D8CF80030124888F84B
:101FE00000301370012306F8AC3C4FF400140EF8D7
:101FF000441C7026102107F82C3C2E70046082F8D7
:10200000F810AEF1440EBDE8F08100BF0000FF1FE4
:102010003480044000D80040402107409C20074005
:10202000B020074035E400E004E100E0442107402F
:10203000802007408820074000F0BAB800F092B82E
:1020400000F06CB800F0A6B800F082B900F05CB9FE
:102050000846114600F0C8B8084600F049B900BF6C
:10206000704700BF72B60D480268B2FA82F31D2BAA
:1020700010DC4FF00041D94022EA0102026062B652
:10208000074803EBC303DB00C2180021C150104610
:102090005160704762B60020704700BFC80DFF1F37
:1020A0003C05FF1F0D4B0E4AC31AA2FB03231B095D
:1020B0001D2B0CD80B4A127852B972B60A484FF051
:1020C0000041026821FA03F31A43026062B67047C6
:1020D000064A1278002AF0D0FFF74AB93C05FF1FE4
:1020E000398EE3383919FF1FC80DFF1F4419FF1F30
:1020F00038B5084B1C7824B9074D296809B14B88BD
:1021000003B938BD9B000B800420FFF779F92C60E0
:1021100038BD00BF5019FF1F5419FF1F38B50F4DB0
:10212000286878B143880288C118013393420C7A39
:1021300002D24380204638BDFFF7B4FF002320467B
:102140002B6038BD064B1B782BB10220FFF7DCF863
:1021500028600028E6D14FF0FF3038BD6419FF1F1A
:102160004419FF1F10B5094C206818B14388184462
:10217000007A10BD064B1B782BB10220FFF7C4F884
:1021800020600028F2D14FF0FF3010BD6419FF1F0E
:102190004419FF1F044B054A1B6850881BB11A885D
:1021A0005B88D31A184470476419FF1F701DFF1F06
:1021B0000B4B1B789BB110B50A4C206848B1FFF758
:1021C00071FF002302202360FFF79EF830B1FFF774
:1021D00069FF0220FFF798F80028F8D110BD70477A
:1021E0004419FF1F6419FF1F2DE9F04FDFF8F89025
:1021F00083B0012289F80020019169B3DFF8EC80F7
:10220000354F019E8346D8F80000B0B3334D448863
:10221000C4F14001B14228BF314604EB010E002257
:102220001FFA8EFE2A70761AA0F802E000F108026A
:1022300051B1013C224459441BF8014B02F8014FB3
:102240008B45F9D1B0F802E0BEF13F0F0BD8244A1C
:1022500005211170002ED6D10198002389F8003095
:1022600003B0BDE8F08F4022028001460320FFF753
:10227000C7F80022C8F80020E9E73A7822B3194CE1
:10228000164D4FF0010A07E0013C16D02A78A2B99A
:1022900000F0AEF83A78BAB10320FFF753F80728F8
:1022A000F2D889F800A0FFF7DDFEC8F8000000288A
:1022B000ADD10D4B013C1870E8D101234FF0FF3038
:1022C0002B7003B0BDE8F08F00234FF0FF3089F88A
:1022D000003003B0BDE8F08F4419FF1F6019FF1FE5
:1022E0005819FF1F214801005919FF1F5C19FF1FD2
:1022F00000B583B002AB012103F8010D1846FFF7CA
:1023000073FF03B05DF804FB38B50E4D0E4C286822
:102310000123237028B1408800232370C0F14000BE
:1023200038BD0A4B1B7813B90020207038BD03203C
:10233000FFF708F80728F7D8FFF794FE2860002871
:10234000E9D1F1E75C19FF1F5919FF1F4419FF1F5D
:10235000F8B5114B1B788BB1104E114D3468012725
:102360002F7064B10F4A63880027177021462380BD
:102370000320FFF745F8376000232B70F8BDFFF707
:1023800071FE084B28B1014603201C70FFF738F896
:10239000F2E71F70F0E700BF4419FF1F5C19FF1F31
:1023A0005919FF1F5819FF1F38B50E4B1B7873B909
:1023B0000D4C216861B103F0FF054B880B800320B1
:1023C000FFF71EF8256038BD084B01221A7038BD92
:1023D000FFF748FE0028F7D00146BDE8384003204B
:1023E000FFF70EB85919FF1F5C19FF1F5819FF1F7F
:1023F00038B52C4C237803B138BD01232370FFF787
:10240000C9FE002842D100F0CBF900283BD100F0F2
:102410005DFA002834D100F0EFFA70BB00F068FBE1
:1024200040BB00F0E1FB10BB00F05AFCE0B9002318
:102430002370EFF30583002BDED1EFF3108172B62A
:10244000194B186828B3194C227812BB45691D60D6
:10245000012323700DB3AA6101B962B60025457747
:10246000836898472570C7E700F028F9DFE700F098
:1024700023F9D9E700F01EF9D3E700F019F9CDE709
:1024800000F014F9C7E700F00FF9C0E7FFF7E8FD27
:10249000B9E70029B0D162B638BD054B1D600029EF
:1024A000DCD1DAE76919FF1F7C19FF1F8019FF1FB4
:1024B0007819FF1F10B4EFF3108272B6437F33B95F
:1024C000017F012908D0032910D00123437702B9E5
:1024D00062B65DF8044B7047114C2168A1B11149F7
:1024E00043610B68836108605861EEE70E4C216818
:1024F00081B10E4943610B688361086058610C4BE0
:102500004FF080511960E0E7064B41618161206026
:102510001860DAE7054B4161816120601860EEE7E1
:102520007C19FF1F7819FF1F6C19FF1F7019FF1FFF
:1025300004ED00E010B4047F4160022CC26003D0BF
:102540005DF8044BFFF7B6BF83685DF8044B18478E
:1025500070B5EFF3108272B60C4C206880B10C4E4F
:1025600000254369236073B19D6102B962B6457766
:1025700083689847EFF3108272B620680028F0D184
:1025800002B962B670BD3360EFE700BF6C19FF1F80
:102590007019FF1FFFF7DCBF184A30B41468002C15
:1025A00027D0036821688B420ED2CB1A00218460A9
:1025B000C1602360E06010600223037530BC704787
:1025C00011688B42144608D3A2685B1A0360002A84
:1025D000F6D18260C460A060EEE7D268C260846019
:1025E000E060C568CB1A0222A8602360027530BC87
:1025F00070478460C4601060DEE700BF7419FF1F7D
:10260000F8B5224E34682CB32368002B3AD1204F02
:102610001D4604E03468ECB12368002B32D1A36876
:1026200003B1DD6020693360036825751B68BB4218
:1026300021D1037F4560022BC46020D0FFF73AFF11
:102640006368002BE6D023602046FFF7A5FF3468BF
:10265000002CE1D1EFF3108372B60E4A002110680E
:10266000116003B962B628B18468FFF795FF204670
:102670000028F9D1F8BD224600219847E0E7836899
:102680009847DDE7013B2360E4E700BF7419FF1FB3
:10269000352500008419FF1F024A136801331360B7
:1026A000FFF7AEBF2018FF1F704700BF704700BF85
:1026B000704700BF704700BF704700BF704700BF42
:1026C00030B42948294A2A4B2A4D6024E12104705C
:1026D00011701B78284C082B30D00A2B274828492A
:1026E00037D00C2B0CBF35225D2212232A602360C9
:1026F00002600B60234B24491B78244ABBB10123A1
:102700000B601360224B23491B78234A012B26D9E7
:10271000042B0FD9082B1ED9102B94BF8623872397
:102720000B6013601D4B01221A7030BC70470B60A8
:102730001360E7E784230B601360F3E700F58E2056
:102740000F490830212213232A60236002600B60A6
:10275000D0E73922F7E785230B601360E2E7802397
:102760000B601360DEE700BF0040074001400740F8
:10277000CC0DFF1F08B003400CB0034008B00B4065
:102780000CB00B408919FF1F20B0034020B00B4054
:10279000CD0DFF1F24B0034024B00B408819FF1F4C
:1027A000054A064B10781B78C0B2DBB2984238BF9E
:1027B0004030C01A704700BF9019FF1F9119FF1FCA
:1027C000F0B4384B1A7912F0300F2CD072B6997DD4
:1027D00001F0FF0200293DD062B6334F334938780B
:1027E0000D78334E1C46C0B2EDB2431C402BE1794C
:1027F00028BF0023AB4202F1FF32C9B21CBFF15423
:10280000184612F0FF02F0D12A4B1B68C2B23A7090
:102810004BB1A84236BFC5F14005401B40192728DF
:10282000C4BF01221A701F49CA78D2B2150616D445
:1028300052060DD51B4B1B795B0609D51E4B1F4954
:102840001B6800220A7003B11A70164B3C22DA7022
:10285000F0BC70474022D9795A7462B6E3E70B792D
:102860001C06E5D5164B174E1C783378E4B2DBB264
:102870009C420ED0144D01E0A3420AD00133402BFC
:1028800028BF00230879E85CC0B2C871087D07281A
:10289000F2D9DBB2034933700B79180644BF7C23AD
:1028A000CB70C5E700A006409019FF1F9119FF1FCC
:1028B000D419FF1F8C19FF1F181AFF1F141AFF1FAE
:1028C0001C1AFF1F151AFF1F9419FF1F054A064BFC
:1028D00010781B78C0B2DBB2984238BF4030C01AC3
:1028E000704700BF901AFF1F251AFF1FF0B4384B26
:1028F0001A7912F0300F2CD072B6997D01F0FF02D8
:1029000000293DD062B6334F334938780D78334EC5
:102910001C46C0B2EDB2431C402BE17928BF002316
:10292000AB4202F1FF32C9B21CBFF154184612F09B
:10293000FF02F0D12A4B1B68C2B23A704BB1A842D9
:1029400036BFC5F14005401B40192728C4BF0122EE
:102950001A701F49CA78D2B2150616D452060DD580
:102960001B4B1B795B0609D51E4B1F491B680022B8
:102970000A7003B11A70164B3C22DA70F0BC704733
:102980004022D9795A7462B6E3E70B791C06E5D583
:10299000164B174E1C783378E4B2DBB29C420ED053
:1029A000144D01E0A3420AD00133282B28BF002395
:1029B0000879E85CC0B2C871087D0728F2D9DBB29B
:1029C000034933700B79180644BF7C23CB70C5E7ED
:1029D00000B00640901AFF1F251AFF1F501AFF1F54
:1029E000201AFF1F941AFF1F241AFF1F981AFF1F97
:1029F000911AFF1F281AFF1F054A064B10781B78F3
:102A0000C0B2DBB2984238BF4030C01A704700BF36
:102A1000A01AFF1FA11AFF1F30B42B4B1A7994067E
:102A20001FD52A48DA790378294901333F2B0978E1
:102A3000C8BF00238B42D2B203D0264CD9B2E25495
:102A40000170254A116861B1244A1278D2B29342CA
:102A500036BFC2F140029B1A9B18272BC4BF01232B
:102A60000B70194AD378DBB2180611D45A060DD56B
:102A7000154B1B795B0609D5194B1A491B680022B7
:102A80000A7003B11A70104B2C22DA7030BC7047F8
:102A900011790906EAD5144910480C780178C9B2B1
:102AA0008C420DD04A1C272A84BF00210A460F4DB4
:102AB000054C98BFD1B2AA5CD2B2E2710170D5E7E1
:102AC0006C21D170D2E700BF00C00640A01AFF1FE2
:102AD000A11AFF1FCC1AFF1F9C1AFF1F0D1BFF1FFF
:102AE000101BFF1F0C1BFF1F141BFF1FA41AFF1F2F
:102AF000054A064B10781B78C0B2DBB2984238BF4B
:102B00004030C01A704700BF1C1BFF1F1D1BFF1F5A
:102B100030B42B4B1A7994061FD52A48DA790378FA
:102B2000294901333F2B0978C8BF00238B42D2B219
:102B300003D0264CD9B2E2540170254A116861B124
:102B4000244A1278D2B2934236BFC2F140029B1A95
:102B50009B18272BC4BF01230B70194AD378DBB213
:102B6000180611D45A060DD5154B1B795B0609D5ED
:102B7000194B1A491B6800220A7003B11A70104BD6
:102B80002C22DA7030BC704711790906EAD5144955
:102B900010480C780178C9B28C420DD04A1C272A03
:102BA00084BF00210A460F4D054C98BFD1B2AA5CE4
:102BB000D2B2E2710170D5E76C21D170D2E700BFCB
:102BC00000D006401C1BFF1F1D1BFF1F481BFF1FC3
:102BD000181BFF1F891BFF1F8C1BFF1F881BFF1F5C
:102BE000901BFF1F201BFF1F054A064B10781B7808
:102BF000C0B2DBB2984238BF4030C01A704700BF45
:102C0000981BFF1F991BFF1F30B42B4B1A7994069A
:102C10001FD52A48DA790378294901333F2B0978EF
:102C2000C8BF00238B42D2B203D0264CD9B2E254A3
:102C30000170254A116861B1244A1278D2B29342D8
:102C400036BFC2F140029B1A9B18272BC4BF012339
:102C50000B70194AD378DBB2180611D45A060DD579
:102C6000154B1B795B0609D5194B1A491B680022C5
:102C70000A7003B11A70104B2C22DA7030BC704706
:102C800011790906EAD5144910480C780178C9B2BF
:102C90008C420DD04A1C272A84BF00210A460F4DC2
:102CA000054C98BFD1B2AA5CD2B2E2710170D5E7EF
:102CB0006C21D170D2E700BF00A00E40981BFF1F0F
:102CC000991BFF1FC41BFF1F941BFF1F051CFF1F29
:102CD000081CFF1F041CFF1F0C1CFF1F9C1BFF1F59
:102CE000054A064B10781B78C0B2DBB2984238BF59
:102CF0004030C01A704700BF141CFF1F151CFF1F77
:102D000030B42C4B5A6894021FD52B48DA680378EC
:102D10002A4901333F2B0978C8BF00238B4204D0D6
:102D2000274CD2B2D9B2E2540170264A116861B17F
:102D3000254A1278D2B2934236BFC2F140029B1AA2
:102D40009B18272BC4BF01230B701A4A93681802E3
:102D500002D55268110211D45A020DD5154B5B6889
:102D60005B0209D5194B1A491B6800220A7003B18E
:102D70001A70184B00221A6030BC7047164A12496C
:102D800010780A78D2B290420DD00132272A84BF3F
:102D900000200246114D074C98BFD0B2AA5CD2B2B7
:102DA000E2600870D8E70E480A4A00240121046056
:102DB0001160D1E700400C40141CFF1F151CFF1FC1
:102DC000401CFF1F101CFF1F811CFF1F841CFF1FC6
:102DD000801CFF1F58018843881CFF1F181CFF1F01
:102DE0005C01884300EB83039842F0B50AD32DE0E1
:102DF00050F8044B21F8024B83424FEA144422F866
:102E0000024B23D98C07F3D4A3F1080E704512D2DC
:102E100050F8087B50F8046C340C2404BDB244EA2A
:102E2000174445EA0645704541F8045B42F8044BF7
:102E3000EED383420FD950F8044B21F8024B834262
:102E40004FEA144422F8024BF5D8F0BDA3F1080E66
:102E50007045DDD3F0BDF0BD514B2DE9F04FB3F817
:102E60000080DFF850B14F4BDBF8004001221A70B0
:102E70004D4B83B08608C2461D68002C4ED0002DF5
:102E800055D0002E5CD0C8F18007BE42C0F08380D0
:102E9000464B0193DFF82081DFF814910FBBD8F87F
:102EA0000030002B37D1D9F800204B46002A32D110
:102EB000C8F800401D6000F093F90446002845D092
:102EC00000F08EF90546002849D0374BCBF800407A
:102ED0001860002E33D07F2E4FF0000A4FF080078D
:102EE00049D94FEA4A032A1D211D1A441944019861
:102EF0003B46FFF777FF019AD8F8003002EB8702D4
:102F0000F61B019223B9D9F80020294B002ACFD013
:102F1000234B57441F8003B0BDE8F08F00F060F9E9
:102F200004460028F7D0CBF80000002DA9D100F00E
:102F300057F905460028EED01B4B1860A1E7B046B4
:102F4000174BA3F8008003B0BDE8F08F164BCBF809
:102F500000001860124B188003B0BDE8F08F2046C7
:102F600000F092F9104BCBF800501D600C4B1D8007
:102F700003B0BDE8F08FD04653462A1D211D1A44E8
:102F8000194401983346FFF72DFF054B46441E8038
:102F900003B0BDE8F08F054A01924FEA4803ECE721
:102FA000B41CFF1FA41CFF1F8C1CFF1FD403FF1F9A
:102FB000941CFF1FA01CFF1FA81CFF1F354A2DE9F2
:102FC000F04F13680133082B83B051D81360B0233E
:102FD00001934FF02C0A3049DFF8D0B04FF00008D1
:102FE0000868C8EB0A03002849D0BBF800E02B4A68
:102FF000D2F80090CEF18002934228BF1346051DFF
:103000004FEA4E0209F10407154417444FEA8806B7
:103010006BB1234A043E16441C4637F902CB35F8FF
:10302000022B013C42EA0C4246F8042FF5D19E44A3
:10303000BEF17F0F984407D8ABF800E0C245CFD867
:10304000019803B0BDE8F08F009100F01DF94846EB
:1030500000F01AF9134800990368134A0B60002323
:1030600014680360ABF8003013600C4B1C60E5E79C
:1030700000231360B42301934FF02D0AABE7084CF3
:1030800001469A0004EB480000F0DAFC019803B016
:10309000BDE8F08FDC0DFF1F981CFF1FAC1CFF1F4D
:1030A0008804FF1FB01CFF1F9C1CFF1F901CFF1FEC
:1030B0000378A12B01D000207047C378012B12D0D8
:1030C000022BF8D14378812B18D0822B1DD0832B73
:1030D0000FD0842BEFD10120002308704B70022306
:1030E0001360012070470B48406808701846136051
:1030F0007047FF200F2308704B70F0E7054B98686E
:1031000008709B681B124B70E9E700230B704B7033
:10311000E5E700BFD00DFF1F0378212B01D0002071
:103120007047C3784078012B0ED0022BF7D10128CD
:10313000F5D110B40B784C78074A03EB0423936065
:1031400010605DF8044B70470128E8D1024B0A7803
:1031500083E80500704700BFD00DFF1F10B584B095
:1031600072B6FDF759FF184A184B194911607022C1
:1031700080211A701A46197013781B06FCD5154B5E
:103180001C68FDF763FF62B6134B9C429CBF04EBC7
:10319000840464002046114C01A90A22FDF774FF43
:1031A00001A92046002311F8012B01333AB10A2B63
:1031B00020F8022FF7D11623237004B010BD5B0056
:1031C000DBB2237004B010BD0400024000000240D6
:1031D000000007410C0002407F9698008C0FFF1FF3
:1031E000F0B472B6234F244E3C8806F1700306EB10
:1031F0008400984212D256F8241099B9021D06F1A3
:103200007305631CAD1A03EB950503E052F8041B2C
:1032100041B90133AB421C461046F7D162B60020DB
:10322000F0BC7047B1FA81F34FF00042DA4021EA76
:103230000201016001B9013410493C800A88013261
:1032400094B20C8062B6801B8010C3EB401000EB80
:10325000801083000A480B49006803F5FB531C33B8
:103260000125C5540D88AA42184488BF0C80F0BCC3
:10327000704700BF361DFF1FC41CFF1F381DFF1FF6
:10328000C01CFF1FBC1CFF1F428872B60378012BB5
:1032900003D9013B037062B67047531170B40C4CF4
:1032A0000C4D54F823102E88D2434FF0004002F00A
:1032B0001F0220FA02F21143074A44F82310B342D6
:1032C00038BF2B801388013B138062B670BC7047F7
:1032D000C41CFF1F361DFF1F381DFF1F1A491B4A44
:1032E0001B48F8B50B681B4D046843F080730B60F6
:1032F000136843F0010313602E6814B915E0646984
:103300009CB1237A002BFAD023682F681B682046D3
:1033100098472B68E188DB1B1B099AB28B42A2807D
:1033200088BFE2806469002CEBD10A4B0A4A1B6813
:1033300010880A4C9B1B1B0999B28342218001D93A
:103340001180F8BDF8BD00BFFCED00E0001000E00A
:10335000B81CFF1F041000E0341DFF1F3A1DFF1FA3
:103360000B460146184600F00BB800BF30B4642588
:103370000024057244600170427030BC704700BF89
:1033800013460A460146022000F088BE014B186829
:10339000704700BFD013FF1F70B50F4E0F4D761B47
:1033A000B61018BF002405D0013455F8043B9847E7
:1033B000A642F9D10A4E0B4D761B01F0B5F8B610B6
:1033C00018BF002406D0013455F8043B9847A642A4
:1033D000F9D170BD70BD00BF344500003445000018
:1033E0004045000034450000024B0146186800F0DB
:1033F0000BB800BFD013FF1F024B0146186800F046
:1034000011BF00BFD013FF1F2DE9F04F01F10B05D5
:10341000162D83B0064640F29F8035F0070500F177
:10342000BF80A94200F2BC8000F058FBB5F5FC7FDC
:10343000C0F09C826B0A00F0BA80042B00F28381FA
:10344000A80900F1390E4FEA4E033830C44F07EB9C
:103450008303A3F108015C68A14207D1ACE0002A14
:1034600080F2AC80E468A14200F0A680636823F09B
:1034700003035A1B0F2AF2DDB9493C6901F1080E1A
:10348000744500F0B381636823F003035A1B0F2ACD
:1034900000F39981002AC1F814E0C1F810E080F22D
:1034A0009E80B3F5007F80F06781DB0803F1010C9B
:1034B00001229B1002FA03F34A6851F83C80C4F8D9
:1034C000088001EBCC091A43A9F10803E3604A60C4
:1034D00041F83C40C8F80C40831001249C409442C1
:1034E00000F28A80144206D120F0030064001442E6
:1034F00000F10400FAD007EBC009CC468046DCF8A6
:103500000C108C4507D173E1002A80F28181C968D3
:103510008C4500F06D814B6823F003035A1B0F2A82
:10352000F2DD0C46D1F80CC054F8088F4B1945F069
:1035300001054D6042F00101C8F80CC03046CCF8DE
:1035400008807B613B61C3F80CE0C3F808E0596078
:103550009A5000F0C5FA1FE0102921D800F0BEFAF9
:103560001025062302207E4F07EB8303A3F10802F8
:103570005C68944200F045816368E168A56823F0C7
:103580000303234430465A68E96042F001028D602B
:103590005A6000F0A5FA0834204603B0BDE8F08F69
:1035A00000240C232046336003B0BDE8F08F802355
:1035B0004FF0400E3F2049E770465DE72344E16845
:1035C0005A68A56842F00102E96030468D605A6091
:1035D00000F086FA0834204603B0BDE8F08F23449B
:1035E00030465A6842F001025A6000F079FA083415
:1035F000204603B0BDE8F08FBC68636823F0030881
:10360000A84504D3C5EB08030F2B00F38C80554B62
:10361000DFF860911A68D9F8003001332A4404EBCE
:10362000080A00F0608102F580520F3222F47F62B6
:1036300022F00F0211463046019200F04BFCB0F12F
:10364000FF3F8346019A00F05881824500F2FC80DA
:10365000454B1968DA451144196000F05381D9F8D7
:103660000000DFF810E101301BBFCAEB0B0A514428
:10367000CEF800B019601BF0070100F01781C1F10E
:103680000800C1F58051834408315A44C2F30B024B
:10369000C2EB010949463046019300F01BFC431C74
:1036A000019B00F03F81CBEB00024A4442F0010253
:1036B0001968C7F808B04944BC42CBF80420196027
:1036C000DFF8A49016D0B8F10F0F40F2FD806268C9
:1036D000A8F10C0323F00703E01802F001024FF0F9
:1036E000050E1A430F2B6260C0F804E0C0F808E032
:1036F00000F21C811D4BBC681A68914288BF19609A
:103700001B4B1A689142626888BF196022F003025D
:103710009542A2EB050301D80F2B04DC304600F0E4
:10372000DFF9002438E7621943F0010345F0010591
:1037300065603046BA60536000F0D2F90834204624
:1037400003B0BDE8F08F142B71D9542B00F2A48084
:10375000280B00F16F0E4FEA4E036E3076E600BF85
:10376000D413FF1F441DFF1F481DFF1F401DFF1FD7
:103770003C1DFF1FE017FF1F5A0A042A5ED9142AB6
:1037800000F2B38002F15C0149005B3207EB810C6F
:1037900057F82110DFF8DC81ACF1080C8C4500F003
:1037A00088804A6822F00302934202D289688C45DD
:1037B000F7D1D1F80CC07A68C4F80CC0A160CCF87D
:1037C0000840CC6088E6631942F0010745F0010526
:1037D000656030464B610B61C3F80CE0C3F808E04C
:1037E0005F609A50083400F07BF9D5E64A6873E6CA
:1037F00008F1010818F0030F0CF1080C7FF47FAEFC
:1038000030E0DC68A34208BF02303FF435AEB3E6D7
:103810000B440C465A68C96854F8085F42F001022C
:103820005A603046E9608D6000F05AF9B4E603F161
:103830005C0E03F15B004FEA4E0307E69A0902F1C2
:10384000390149003832A1E7BC424A4B3FF400AF8E
:103850009C68626822F003025AE759F808399945D2
:1038600040F0828010F0030F00F1FF30F5D17B684B
:1038700023EA04037B6064009C423FF6BDAE002C4B
:103880003FF4BAAE1C4240467FF435AE64001C42A1
:1038900000F10400FAD02EE6B3F5AA7F18D8E80BA1
:1038A00000F1780E4FEA4E037730CFE54FF48051A8
:1038B000EBE60121D8F80430921001FA02F21A4323
:1038C000C8F80420614677E70123CBF8043025E7E8
:1038D00040F25452934220D8A80C00F17D0E4FEADA
:1038E0004E037C30B2E51032A4E6542A26D81A0BD7
:1038F00002F16F0149006E3248E7BC68626822F04D
:10390000030205E7CAF30B0000287FF4A8AE424487
:10391000BB6842F001025A60ECE6FE234FF07F0ED6
:103920007E2093E501224FF00009C1E604F1080171
:10393000304600F077FCD9F80010DBE6B2F5AA7F3C
:1039400005D8DA0B02F17801490077321EE740F220
:1039500054518A4205D89A0C02F17D0149007C320B
:1039600014E7FE217E2211E77B6884E7E808431C08
:103970005B00F8E5D413FF1F8842F0B50DD98B1812
:1039800098420AD28118002A51D09A1A13F8014D90
:1039900001F8014D9342F9D1F0BD0F2A48D941EA0F
:1039A00000039B0746D100F1100401F110031546F6
:1039B00053F8106C44F8106C53F80C6C44F80C6C11
:1039C00053F8086C44F8086C103D53F8046C44F844
:1039D000046C0F2D03F1100304F11004E8D8A2F1D8
:1039E000100323F00F0302F00F0E1033BEF1030F8C
:1039F0001944034421D91E1F0D467446043C55F852
:103A0000047B46F8047F032CF8D8AEF1040424F0BC
:103A1000030404342344214402F0030262B1013B55
:103A20000A4411F8014B03F8014F8A42F9D1F0BD65
:103A30000346F3E70346F2E7F0BD7246EEE700BF48
:103A400070B4840746D0541E002A41D0CDB203463C
:103A500002E0621EE4B3144603F8015B9A07F8D152
:103A6000032C2ED9CDB245EA05250F2C45EA054594
:103A700019D903F110022646103E0F2E42F8105CB1
:103A800042F80C5C42F8085C42F8045C02F1100257
:103A9000F2D8A4F1100222F00F0204F00F04103249
:103AA000032C13440DD91E462246043A032A46F835
:103AB000045BFAD8221F22F003020432134404F0FC
:103AC00003042CB1C9B21C4403F8011BA342FBD16F
:103AD00070BC704714460346C2E700BF704700BF82
:103AE000704700BF024B0A460146186800F002B852
:103AF000D013FF1F2DE9F04F174683B0002900F0C7
:103B0000C1800E46814607F10B05FFF7E7FF56F827
:103B100004EC162D2EF00304A6F1080840D810225C
:103B20001546AF4241D8944275DAC94B996808EB03
:103B300004008842416800F0D98021F00103034469
:103B40005B68DB077DD51EF0010F35D0394648464E
:103B5000FFF75AFC0746E0B156F8043C23F0010396
:103B60004344A0F108029A4200F04481221F242A13
:103B700000F23181132A00F20481034632461168B3
:103B800019605168596092689A603146484600F061
:103B900049FB4846FFF7A4FF384603B0BDE8F08F65
:103BA00025F00705002D2A46BBDA0C230020C9F8B2
:103BB000003003B0BDE8F08F56F8083CC3EB080AAC
:103BC000DAF8043023F0030C04EB0C039342BDDB62
:103BD0005746DAF80C1057F8080F221F242AC16044
:103BE000886000F21781132A40F212813168CAF806
:103BF00008107168CAF80C101B2A00F22B810836D5
:103C00000AF110023168116071685160B168916009
:103C10003E461C46D046631B0F2B1DD8D8F80430F7
:103C200003F0010323434444C8F80430636843F0BD
:103C3000010363604846FFF753FF304603B0BDE819
:103C4000F08F21F003012144914221DBC368826897
:103C50000C46D3609A60DEE7D8F8042008EB050133
:103C600002F00102154343F001020B44C8F804506E
:103C70004A605A6842F0010208315A60484600F032
:103C8000D1FAD7E7114603B0BDE8F04FFFF7BCBB50
:103C90001EF0010F7FF45AAF56F8083CC3EB080A38
:103CA000DAF8043023F0030C01EB0C0E96458BDBA5
:103CB000C36882685746D3609A6057F8081FDAF8DD
:103CC0000C30CB60221F242A996000F29980132ABD
:103CD00062D93368CAF808307368CAF80C301B2AF6
:103CE00000F2A08008360AF1100356E021F0030B21
:103CF000A34405F11000834559DA1EF0010F7FF44B
:103D000025AF56F8081CC1EB080ADAF8041021F0B8
:103D1000030CE34458453FF757AF5746DAF80C1009
:103D200057F8080F221F242AC160886000F2B4806F
:103D3000132A40F2A5803168CAF808107168CAF8E1
:103D40000C101B2A00F2AF8008360AF1100231680D
:103D5000116071685160B16891600AEB0501C5EBB3
:103D60000B0242F0010299604A60DAF8043003F075
:103D700001031D434846CAF80450FFF7B1FE384618
:103D80005CE733680360736843601B2A27D800F13F
:103D9000080306F10802F2E63B4632681A607268D0
:103DA0005A60B2689A603E467446D04633E708EBE4
:103DB0000501C5EB0B0B4BF0010299604A6056F808
:103DC000043C03F001031D43484646F8045CFFF73A
:103DD00087FE304632E73146FFF7CEFDD5E6B368C1
:103DE0008360F368C360242A28D000F1100306F131
:103DF0001002C4E650F8043C23F003031C440AE715
:103E0000314638467446D046FFF7B6FD3E4602E7D7
:103E10003A46F7E6314638461C46D046FFF7ACFD39
:103E20003E46F8E6B368CAF81030F368CAF81430B2
:103E3000242A1BD010360AF11803AEE73369036158
:103E40007369436106F1180200F1180397E600BF99
:103E5000D413FF1FB168CAF81010F168CAF8141023
:103E6000242A0FD010360AF11802CBE63369CAF8BB
:103E700018307369CAF81C3018360AF120038CE731
:103E80003A4664E73269CAF818207269CAF81C20F9
:103E900018360AF12002B5E6314638460193FFF79D
:103EA0006BFD019B59E7B168CAF81010F168CAF8B8
:103EB0001410242A03D010360AF1180247E7326999
:103EC000CAF818207269CAF81C2018360AF12002B4
:103ED0003DE700BF38B5074C002305460846236080
:103EE000FDF784F8431C00D038BD2368002BFBD0BD
:103EF0002B6038BD8C1DFF1F80EA0102844612F042
:103F0000030F4FD111F0030F32D14DF8044D11F0D2
:103F1000040F51F8043B0BD0A3F101329A4312F085
:103F2000803F04BF4CF8043B51F8043B16D100BF5E
:103F300051F8044BA3F101329A4312F0803FA4F1EF
:103F400001320BD14CF8043BA24312F0803F04BF76
:103F500051F8043B4CF8044BEAD023460CF8013BE3
:103F600013F0FF0F4FEA3323F8D15DF8044B70478D
:103F700011F0010F06D011F8012B0CF8012B002ACB
:103F800008BF704711F0020FBFD031F8022B12F0BA
:103F9000FF0F16BF2CF8022B8CF8002012F47F4F75
:103FA000B3D1704711F8012B0CF8012B002AF9D17D
:103FB000704700BFFFFFFFFFFFFFFFFFFFFFFFFF97
:103FC00090F800F06DE9024520F007016FF0000C59
:103FD00010F0070491F820F040F049804FF0000401
:103FE0006FF00700D1E9002391F840F000F10800DC
:103FF00082FA4CF2A4FA8CF283FA4CF3A2FA8CF314
:104000004BBBD1E9022382FA4CF200F10800A4FA7A
:104010008CF283FA4CF3A2FA8CF3E3B9D1E90423CE
:1040200082FA4CF200F10800A4FA8CF283FA4CF305
:10403000A2FA8CF37BB9D1E9062301F1200182FABF
:104040004CF200F10800A4FA8CF283FA4CF3A2FAC5
:104050008CF3002BC6D0002A04BF04301A4612BAD3
:10406000B2FA82F2FDE8024500EBD2007047D1E9D6
:10407000002304F00305C4F100004FEAC50514F065
:10408000040F91F840F00CFA05F562EA05021CBF36
:1040900063EA050362464FF00004A9E72DE9F04703
:1040A000254C2568D5F848410646884692469946EB
:1040B000C4B360681F2817DC431C76B104EB80058D
:1040C0000122C5F888A0D4F8881182401143022E3D
:1040D000C4F88811C5F808911ED00230636044F816
:1040E00020800020BDE8F087144B03B34FF4C87064
:1040F000FFF77AF90446D0B1D5F84831002780E8B7
:104100008800C5F8484138460123C4F88871C4F8CE
:104110008C71002EE1D0D1E7D4F88C110A43C4F899
:104120008C21DAE705F5A674C5F84841C1E74FF0E0
:10413000FF30BDE8F08700BF24450000E9330000F0
:10414000024B13B1024800F005B8704700000000B0
:1041500061410000002301461A461846FFF79EBF42
:1041600038B5074D074C2C1BA41005D0013C55F861
:10417000043D9847002CF9D1BDE8384000F0E0B983
:104180000000000000000000F8B5234F0C46064672
:10419000FFF7A4FCBB685D6825F00305291B01F649
:1041A000EF7121F47F6121F00F01A1F58054B4F586
:1041B000805F07DB00213046FFF78CFEBB682B4495
:1041C000984204D03046FFF78BFC0020F8BD6142D6
:1041D0003046FFF77FFE01300DD0104BBA681968EA
:1041E0002D1B45F001053046091B55601960FFF78E
:1041F00077FC0120F8BD00213046FFF76BFEBA685E
:10420000831A0F2BDEDD064C0449246843F00103BA
:10421000001B53600860D5E7D413FF1F481DFF1F24
:10422000E017FF1F002945D02DE9F0410D468046DB
:10423000FFF754FC55F8047C6A4927F00103A5F107
:104240000804E2188E685068B24220F0030062D081
:10425000FE0750600BD455F8087CE41B01F1080EF2
:10426000A56875453B446FD0E768EF60BD601518E1
:104270006D68ED0742D543F001026260E350B3F58B
:10428000007F18D2DB085A1C4D6851F83270A760C5
:1042900001209B1000FA03F301EBC2001D43083814
:1042A000E0604D6041F83240FC604046BDE8F041BE
:1042B000FFF716BC70475A0A042A53D89A0902F12C
:1042C00039077F0002F1380501EB870051F82720FC
:1042D0004449083890424DD0516821F003018B4287
:1042E00002D292689042F7D1D068E060A260846008
:1042F000D4604046BDE8F041FFF7F2BB95683A4F05
:10430000BD4203443FD0D068E86043F001028560BD
:104310006260E350B3E7FF07034407D455F8082C65
:10432000A41A1344A068E268C26090602F4A126821
:1043300043F00100934260608C60B6D32C4B404642
:104340001968FFF721FFB0E711184968C90744D47D
:104350009168D268CA60034443F0010091606060D4
:10436000E350A2E7142A17D802F15C077F0002F19C
:104370005B05A9E7AA104B68012505FA02F2134371
:104380004B600246B1E743F001024C610C61E5600D
:10439000A5606260E35088E7542A06D81A0B02F140
:1043A0006F077F0002F16E058EE7B2F5AA7F06D88F
:1043B000DA0B02F178077F0002F1770584E740F21B
:1043C0005450824206D89A0C02F17D077F0002F118
:1043D0007C0579E7FE277E2576E743F001026260DF
:1043E000E35062E7D413FF1FDC13FF1FDC17FF1F2E
:1043F000441DFF1F00000000000000006D040000CD
:10440000F9040000C9040000D1060000890600007C
:10441000810500000D060000010700007104000086
:104420003D07000048656C6C6F2100FF5363656EAB
:104430006500FFFF00000000000000001108000000
:1044400079080000490800008D0A0000090A0000F0
:10445000010900008D090000510A00001508000044
:10446000BD0A00004452554D00000000000000004D
:1044700000000000650B0000CD0B00009D0B00004C
:10448000E10D00005D0D0000550C0000E10C000086
:10449000A50D0000690B0000110E00000D0AFFFFC2
:1044A0000000000000000000592000005120000022
:1044B0004D20000049200000452000004120000060
:1044C0003D20000039200000151915151914181485
:1044D00000010000E00DFF1F1200000000020000BC
:1044E0000C0EFF1F5501000000030000880FFF1F86
:1044F0000000000001030904F40DFF1F000000008C
:1045000002030904640FFF1F0000000003030904F5
:104510008C0FFF1F000000000000000000000000E2
:1045200000000000A80FFF1FF8B500BFF8BC08BCD2
:104530009E46704741410000350400008D07000091
:04454000F8B500BF0B
:084544001CEEFF7F01000000E6
:10454C0000000000901DFF1FA844000000000000A8
:10455C00E803000000000000FFFFFFFF0A0400005A
:10456C000000000000000000FF0700000500000034
:10457C001201100100000040C0168A0477020102EB
:10458C000301000018035400650065006E00730001
:10459C0079006400750069006E006F000902550116
:1045AC00060100C032080B000202020104090400DB
:1045BC000001020201000524001001052401010183
:1045CC00042402060524060001070581031000409F
:1045DC0009040100020A0000000705020240000065
:1045EC0007058302400000090402000201030000D9
:1045FC000724010001250006240201010006240203
:10460C000202000924030103010201000924030230
:10461C000401010100090505024000000000052508
:10462C00010101090584024000000000052501017B
:10463C0003080B030301010000090403000001013E
:10464C0000000A240100013E000204050C240201B2
:10465C00020600020300000009240302010100010C
:10466C00000C24020301010002030000000A2406CE
:10467C003103010102020009240304020600310087
:10468C0009040400000102000009040401010102F4
:10469C000000072401020301000B24020102021096
:1046AC000144AC0009058609B4000100000725018E
:1046BC0000000000090405000001020000090405C7
:1046CC00010201020000072401030301000B240274
:1046DC00010202100144AC0009050705B4000100F9
:1046EC008807250100000000090588110300010559
:1046FC000000000024035400650065006E00730088
:10470C00790020004D004900440049002F00410071
:10471C007500640069006F00040309040C030000B9
:10472C00000000000000000000000000000000007D
:10473C000000000000000000000000009412FF1FA9
:10474C00FC12FF1F6413FF1F00000000000000009C
:10475C00000000000000000000000000000000004D
:10476C00000000000000000000000000000000003D
:10477C00000000000000000000000000000000002D
:10478C00000000000000000000000000000000001D
:10479C00000000000000000000000000000000000D
:1047AC0000000000000000000000000000000000FD
:1047BC0000000000000000000000000000000000ED
:1047CC0000000000000000000000000000000000DD
:1047DC0000000000000000000000000000000000CD
:1047EC0001000000000000000E33CDAB34126DE66A
:1047FC00ECDE05000B0000000000000000000000D3
:10480C00000000000000000000000000000000009C
:10481C00000000000000000000000000000000008C
:10482C00000000000000000000000000000000007C
:10483C00000000000000000000000000000000006C
:104B6C00A80FFF1F0000000000000000D413FF1F5F
:104B7C00D413FF1FDC13FF1FDC13FF1FE413FF1FF5
:104B8C00E413FF1FEC13FF1FEC13FF1FF413FF1FA5
:104B9C00F413FF1FFC13FF1FFC13FF1F0414FF1F54
:104BAC000414FF1F0C14FF1F0C14FF1F1414FF1F01
:104BBC001414FF1F1C14FF1F1C14FF1F2414FF1FB1
:104BCC002414FF1F2C14FF1F2C14FF1F3414FF1F61
:104BDC003414FF1F3C14FF1F3C14FF1F4414FF1F11
:104BEC004414FF1F4C14FF1F4C14FF1F5414FF1FC1
:104BFC005414FF1F5C14FF1F5C14FF1F6414FF1F71
:104C0C006414FF1F6C14FF1F6C14FF1F7414FF1F20
:104C1C007414FF1F7C14FF1F7C14FF1F8414FF1FD0
:104C2C008414FF1F8C14FF1F8C14FF1F9414FF1F80
:104C3C009414FF1F9C14FF1F9C14FF1FA414FF1F30
:104C4C00A414FF1FAC14FF1FAC14FF1FB414FF1FE0
:104C5C00B414FF1FBC14FF1FBC14FF1FC414FF1F90
:104C6C00C414FF1FCC14FF1FCC14FF1FD414FF1F40
:104C7C00D414FF1FDC14FF1FDC14FF1FE414FF1FF0
:104C8C00E414FF1FEC14FF1FEC14FF1FF414FF1FA0
:104C9C00F414FF1FFC14FF1FFC14FF1F0415FF1F4F
:104CAC000415FF1F0C15FF1F0C15FF1F1415FF1FFC
:104CBC001415FF1F1C15FF1F1C15FF1F2415FF1FAC
:104CCC002415FF1F2C15FF1F2C15FF1F3415FF1F5C
:104CDC003415FF1F3C15FF1F3C15FF1F4415FF1F0C
:104CEC004415FF1F4C15FF1F4C15FF1F5415FF1FBC
:104CFC005415FF1F5C15FF1F5C15FF1F6415FF1F6C
:104D0C006415FF1F6C15FF1F6C15FF1F7415FF1F1B
:104D1C007415FF1F7C15FF1F7C15FF1F8415FF1FCB
:104D2C008415FF1F8C15FF1F8C15FF1F9415FF1F7B
:104D3C009415FF1F9C15FF1F9C15FF1FA415FF1F2B
:104D4C00A415FF1FAC15FF1FAC15FF1FB415FF1FDB
:104D5C00B415FF1FBC15FF1FBC15FF1FC415FF1F8B
:104D6C00C415FF1FCC15FF1FCC15FF1FD415FF1F3B
:104D7C00D415FF1FDC15FF1FDC15FF1FE415FF1FEB
:104D8C00E415FF1FEC15FF1FEC15FF1FF415FF1F9B
:104D9C00F415FF1FFC15FF1FFC15FF1F0416FF1F4A
:104DAC000416FF1F0C16FF1F0C16FF1F1416FF1FF7
:104DBC001416FF1F1C16FF1F1C16FF1F2416FF1FA7
:104DCC002416FF1F2C16FF1F2C16FF1F3416FF1F57
:104DDC003416FF1F3C16FF1F3C16FF1F4416FF1F07
:104DEC004416FF1F4C16FF1F4C16FF1F5416FF1FB7
:104DFC005416FF1F5C16FF1F5C16FF1F6416FF1F67
:104E0C006416FF1F6C16FF1F6C16FF1F7416FF1F16
:104E1C007416FF1F7C16FF1F7C16FF1F8416FF1FC6
:104E2C008416FF1F8C16FF1F8C16FF1F9416FF1F76
:104E3C009416FF1F9C16FF1F9C16FF1FA416FF1F26
:104E4C00A416FF1FAC16FF1FAC16FF1FB416FF1FD6
:104E5C00B416FF1FBC16FF1FBC16FF1FC416FF1F86
:104E6C00C416FF1FCC16FF1FCC16FF1FD416FF1F36
:104E7C00D416FF1FDC16FF1FDC16FF1FE416FF1FE6
:104E8C00E416FF1FEC16FF1FEC16FF1FF416FF1F96
:104E9C00F416FF1FFC16FF1FFC16FF1F0417FF1F45
:104EAC000417FF1F0C17FF1F0C17FF1F1417FF1FF2
:104EBC001417FF1F1C17FF1F1C17FF1F2417FF1FA2
:104ECC002417FF1F2C17FF1F2C17FF1F3417FF1F52
:104EDC003417FF1F3C17FF1F3C17FF1F4417FF1F02
:104EEC004417FF1F4C17FF1F4C17FF1F5417FF1FB2
:104EFC005417FF1F5C17FF1F5C17FF1F6417FF1F62
:104F0C006417FF1F6C17FF1F6C17FF1F7417FF1F11
:104F1C007417FF1F7C17FF1F7C17FF1F8417FF1FC1
:104F2C008417FF1F8C17FF1F8C17FF1F9417FF1F71
:104F3C009417FF1F9C17FF1F9C17FF1FA417FF1F21
:104F4C00A417FF1FAC17FF1FAC17FF1FB417FF1FD1
:104F5C00B417FF1FBC17FF1FBC17FF1FC417FF1F81
:104F6C00C417FF1FCC17FF1FCC17FF1F0000020038
:044F7C00FFFFFFFF35
:00000001FF
